{"abi":[{"type":"function","name":"createExpenseWithCustomSplit","inputs":[{"name":"_title","type":"string","internalType":"string"},{"name":"_participants","type":"address[]","internalType":"address[]"},{"name":"_amount","type":"uint256","internalType":"uint256"},{"name":"_payer","type":"address","internalType":"address"},{"name":"customShares","type":"uint256[]","internalType":"uint256[]"}],"outputs":[],"stateMutability":"nonpayable"},{"type":"function","name":"createExpenseWithEqualSplit","inputs":[{"name":"_title","type":"string","internalType":"string"},{"name":"_participants","type":"address[]","internalType":"address[]"},{"name":"_amount","type":"uint256","internalType":"uint256"},{"name":"_payer","type":"address","internalType":"address"}],"outputs":[],"stateMutability":"nonpayable"},{"type":"function","name":"expenses","inputs":[{"name":"","type":"uint256","internalType":"uint256"}],"outputs":[{"name":"title","type":"string","internalType":"string"},{"name":"amount","type":"uint256","internalType":"uint256"},{"name":"payer","type":"address","internalType":"address"},{"name":"timestamp","type":"uint256","internalType":"uint256"},{"name":"settled","type":"bool","internalType":"bool"},{"name":"equalSplit","type":"bool","internalType":"bool"}],"stateMutability":"view"},{"type":"function","name":"expensesByPayer","inputs":[{"name":"","type":"address","internalType":"address"},{"name":"","type":"uint256","internalType":"uint256"}],"outputs":[{"name":"title","type":"string","internalType":"string"},{"name":"amount","type":"uint256","internalType":"uint256"},{"name":"payer","type":"address","internalType":"address"},{"name":"timestamp","type":"uint256","internalType":"uint256"},{"name":"settled","type":"bool","internalType":"bool"},{"name":"equalSplit","type":"bool","internalType":"bool"}],"stateMutability":"view"},{"type":"function","name":"hasEveryonePaid","inputs":[{"name":"_expenseId","type":"uint256","internalType":"uint256"}],"outputs":[{"name":"","type":"bool","internalType":"bool"}],"stateMutability":"view"},{"type":"function","name":"payShare","inputs":[{"name":"_expenseId","type":"uint256","internalType":"uint256"}],"outputs":[],"stateMutability":"payable"},{"type":"function","name":"settleExpense","inputs":[{"name":"_expenseId","type":"uint256","internalType":"uint256"}],"outputs":[],"stateMutability":"nonpayable"},{"type":"function","name":"shareOf","inputs":[{"name":"","type":"uint256","internalType":"uint256"},{"name":"","type":"address","internalType":"address"}],"outputs":[{"name":"","type":"uint256","internalType":"uint256"}],"stateMutability":"view"},{"type":"event","name":"ExpenseCreated","inputs":[{"name":"expenseId","type":"uint256","indexed":true,"internalType":"uint256"},{"name":"title","type":"string","indexed":false,"internalType":"string"},{"name":"amount","type":"uint256","indexed":false,"internalType":"uint256"},{"name":"payer","type":"address","indexed":false,"internalType":"address"}],"anonymous":false},{"type":"event","name":"ExpenseSettled","inputs":[{"name":"expenseId","type":"uint256","indexed":true,"internalType":"uint256"},{"name":"title","type":"string","indexed":false,"internalType":"string"},{"name":"amount","type":"uint256","indexed":false,"internalType":"uint256"},{"name":"settled","type":"bool","indexed":false,"internalType":"bool"}],"anonymous":false}],"bytecode":{"object":"0x6080604052348015600e575f5ffd5b50611d8c8061001c5f395ff3fe60806040526004361061007a575f3560e01c8063c0a7540b1161004d578063c0a7540b14610178578063c97320a7146101a0578063e14e6644146101bc578063fe5a8db4146101e45761007a565b8063526214081461007e57806354842747146100bf5780637ac0b382146100fb578063af4afe0a14610137575b5f5ffd5b348015610089575f5ffd5b506100a4600480360381019061009f9190610fb4565b61020c565b6040516100b69695949392919061109a565b60405180910390f35b3480156100ca575f5ffd5b506100e560048036038101906100e09190611100565b61031b565b6040516100f2919061113e565b60405180910390f35b348015610106575f5ffd5b50610121600480360381019061011c9190611157565b61033b565b60405161012e9190611182565b60405180910390f35b348015610142575f5ffd5b5061015d60048036038101906101589190611157565b610426565b60405161016f9695949392919061109a565b60405180910390f35b348015610183575f5ffd5b5061019e60048036038101906101999190611157565b610529565b005b6101ba60048036038101906101b59190611157565b6106f8565b005b3480156101c7575f5ffd5b506101e260048036038101906101dd91906112a6565b610966565b005b3480156101ef575f5ffd5b5061020a6004803603810190610205919061137d565b610a91565b005b6001602052815f5260405f208181548110610225575f80fd5b905f5260205f2090600802015f9150915050805f0180546102459061144d565b80601f01602080910402602001604051908101604052809291908181526020018280546102719061144d565b80156102bc5780601f10610293576101008083540402835291602001916102bc565b820191905f5260205f20905b81548152906001019060200180831161029f57829003601f168201915b505050505090806002015490806003015f9054906101000a900473ffffffffffffffffffffffffffffffffffffffff1690806004015490806005015f9054906101000a900460ff1690806007015f9054906101000a900460ff16905086565b6002602052815f5260405f20602052805f5260405f205f91509150505481565b5f5f5f83815481106103505761034f61147d565b5b905f5260205f20906008020190505f5f90505b816001018054905081101561041a575f60025f8681526020019081526020015f205f84600101848154811061039b5761039a61147d565b5b905f5260205f20015f9054906101000a900473ffffffffffffffffffffffffffffffffffffffff1673ffffffffffffffffffffffffffffffffffffffff1673ffffffffffffffffffffffffffffffffffffffff1681526020019081526020015f2054111561040d575f92505050610421565b8080600101915050610363565b5060019150505b919050565b5f8181548110610434575f80fd5b905f5260205f2090600802015f91509050805f0180546104539061144d565b80601f016020809104026020016040519081016040528092919081815260200182805461047f9061144d565b80156104ca5780601f106104a1576101008083540402835291602001916104ca565b820191905f5260205f20905b8154815290600101906020018083116104ad57829003601f168201915b505050505090806002015490806003015f9054906101000a900473ffffffffffffffffffffffffffffffffffffffff1690806004015490806005015f9054906101000a900460ff1690806007015f9054906101000a900460ff16905086565b803373ffffffffffffffffffffffffffffffffffffffff165f82815481106105545761055361147d565b5b905f5260205f2090600802016003015f9054906101000a900473ffffffffffffffffffffffffffffffffffffffff1673ffffffffffffffffffffffffffffffffffffffff16146105d9576040517f08c379a00000000000000000000000000000000000000000000000000000000081526004016105d0906114f4565b60405180910390fd5b5f5f83815481106105ed576105ec61147d565b5b905f5260205f2090600802019050806005015f9054906101000a900460ff161561064c576040517f08c379a00000000000000000000000000000000000000000000000000000000081526004016106439061155c565b60405180910390fd5b6106558361033b565b610694576040517f08c379a000000000000000000000000000000000000000000000000000000000815260040161068b906115ea565b60405180910390fd5b6001816005015f6101000a81548160ff021916908315150217905550827f4fb9166e5951a829c8f5bc69efce694a2b8a44860f83ef1b01deb28a63ccf068825f01836002015460016040516106eb9392919061169b565b60405180910390a2505050565b5f5f828154811061070c5761070b61147d565b5b905f5260205f20906008020190505f60025f8481526020019081526020015f205f3373ffffffffffffffffffffffffffffffffffffffff1673ffffffffffffffffffffffffffffffffffffffff1681526020019081526020015f205490505f826003015f9054906101000a900473ffffffffffffffffffffffffffffffffffffffff169050826005015f9054906101000a900460ff16156107e2576040517f08c379a00000000000000000000000000000000000000000000000000000000081526004016107d99061155c565b60405180910390fd5b5f8211610824576040517f08c379a000000000000000000000000000000000000000000000000000000000815260040161081b90611721565b60405180910390fd5b348214610866576040517f08c379a000000000000000000000000000000000000000000000000000000000815260040161085d906117af565b60405180910390fd5b5f8173ffffffffffffffffffffffffffffffffffffffff168360405161088b906117fa565b5f6040518083038185875af1925050503d805f81146108c5576040519150601f19603f3d011682016040523d82523d5f602084013e6108ca565b606091505b505090508061090e576040517f08c379a000000000000000000000000000000000000000000000000000000000815260040161090590611858565b60405180910390fd5b5f60025f8781526020019081526020015f205f3373ffffffffffffffffffffffffffffffffffffffff1673ffffffffffffffffffffffffffffffffffffffff1681526020019081526020015f20819055505050505050565b8585905082829050146109ae576040517f08c379a00000000000000000000000000000000000000000000000000000000081526004016109a5906118c0565b60405180910390fd5b5f5f5f90505b838390508110156109f3578383828181106109d2576109d161147d565b5b90506020020135826109e4919061190b565b915080806001019150506109b4565b50848114610a36576040517f08c379a0000000000000000000000000000000000000000000000000000000008152600401610a2d906119ae565b60405180910390fd5b610a868989898989898989808060200260200160405190810160405280939291908181526020018383602002808284375f81840152601f19601f820116905080830192505050505050505f610b4b565b505050505050505050565b5f8484905083610aa191906119f9565b90505f8585905067ffffffffffffffff811115610ac157610ac0611a29565b5b604051908082528060200260200182016040528015610aef5781602001602082028036833780820191505090505b5090505f5f90505b86869050811015610b2f5782828281518110610b1657610b1561147d565b5b6020026020010181815250508080600101915050610af7565b50610b41888888888888876001610b4b565b5050505050505050565b5f5f8054905090505f6040518061010001604052808b8b8080601f0160208091040260200160405190810160405280939291908181526020018383808284375f81840152601f19601f8201169050808301925050505050505081526020018989808060200260200160405190810160405280939291908181526020018383602002808284375f81840152601f19601f8201169050808301925050505050505081526020018781526020018673ffffffffffffffffffffffffffffffffffffffff1681526020014281526020015f15158152602001858152602001841515815250908060018154018082558091505060019003905f5260205f2090600802015f909190919091505f820151815f019081610c649190611be4565b506020820151816001019080519060200190610c81929190610e32565b50604082015181600201556060820151816003015f6101000a81548173ffffffffffffffffffffffffffffffffffffffff021916908373ffffffffffffffffffffffffffffffffffffffff1602179055506080820151816004015560a0820151816005015f6101000a81548160ff02191690831515021790555060c0820151816006019080519060200190610d17929190610eb9565b5060e0820151816007015f6101000a81548160ff02191690831515021790555050505f5f90505b87879050811015610de857838181518110610d5c57610d5b61147d565b5b602002602001015160025f8481526020019081526020015f205f8a8a85818110610d8957610d8861147d565b5b9050602002016020810190610d9e9190611cb3565b73ffffffffffffffffffffffffffffffffffffffff1673ffffffffffffffffffffffffffffffffffffffff1681526020019081526020015f20819055508080600101915050610d3e565b50807f892814ce7ba80faf95c2a0ff5f35a1e207f9c859939795b60d8dd3fec3c39faa8a8a8888604051610e1f9493929190611d18565b60405180910390a2505050505050505050565b828054828255905f5260205f20908101928215610ea8579160200282015b82811115610ea7578251825f6101000a81548173ffffffffffffffffffffffffffffffffffffffff021916908373ffffffffffffffffffffffffffffffffffffffff16021790555091602001919060010190610e50565b5b509050610eb59190610f04565b5090565b828054828255905f5260205f20908101928215610ef3579160200282015b82811115610ef2578251825591602001919060010190610ed7565b5b509050610f009190610f04565b5090565b5b80821115610f1b575f815f905550600101610f05565b5090565b5f5ffd5b5f5ffd5b5f73ffffffffffffffffffffffffffffffffffffffff82169050919050565b5f610f5082610f27565b9050919050565b610f6081610f46565b8114610f6a575f5ffd5b50565b5f81359050610f7b81610f57565b92915050565b5f819050919050565b610f9381610f81565b8114610f9d575f5ffd5b50565b5f81359050610fae81610f8a565b92915050565b5f5f60408385031215610fca57610fc9610f1f565b5b5f610fd785828601610f6d565b9250506020610fe885828601610fa0565b9150509250929050565b5f81519050919050565b5f82825260208201905092915050565b8281835e5f83830152505050565b5f601f19601f8301169050919050565b5f61103482610ff2565b61103e8185610ffc565b935061104e81856020860161100c565b6110578161101a565b840191505092915050565b61106b81610f81565b82525050565b61107a81610f46565b82525050565b5f8115159050919050565b61109481611080565b82525050565b5f60c0820190508181035f8301526110b2818961102a565b90506110c16020830188611062565b6110ce6040830187611071565b6110db6060830186611062565b6110e8608083018561108b565b6110f560a083018461108b565b979650505050505050565b5f5f6040838503121561111657611115610f1f565b5b5f61112385828601610fa0565b925050602061113485828601610f6d565b9150509250929050565b5f6020820190506111515f830184611062565b92915050565b5f6020828403121561116c5761116b610f1f565b5b5f61117984828501610fa0565b91505092915050565b5f6020820190506111955f83018461108b565b92915050565b5f5ffd5b5f5ffd5b5f5ffd5b5f5f83601f8401126111bc576111bb61119b565b5b8235905067ffffffffffffffff8111156111d9576111d861119f565b5b6020830191508360018202830111156111f5576111f46111a3565b5b9250929050565b5f5f83601f8401126112115761121061119b565b5b8235905067ffffffffffffffff81111561122e5761122d61119f565b5b60208301915083602082028301111561124a576112496111a3565b5b9250929050565b5f5f83601f8401126112665761126561119b565b5b8235905067ffffffffffffffff8111156112835761128261119f565b5b60208301915083602082028301111561129f5761129e6111a3565b5b9250929050565b5f5f5f5f5f5f5f5f60a0898b0312156112c2576112c1610f1f565b5b5f89013567ffffffffffffffff8111156112df576112de610f23565b5b6112eb8b828c016111a7565b9850985050602089013567ffffffffffffffff81111561130e5761130d610f23565b5b61131a8b828c016111fc565b9650965050604061132d8b828c01610fa0565b945050606061133e8b828c01610f6d565b935050608089013567ffffffffffffffff81111561135f5761135e610f23565b5b61136b8b828c01611251565b92509250509295985092959890939650565b5f5f5f5f5f5f6080878903121561139757611396610f1f565b5b5f87013567ffffffffffffffff8111156113b4576113b3610f23565b5b6113c089828a016111a7565b9650965050602087013567ffffffffffffffff8111156113e3576113e2610f23565b5b6113ef89828a016111fc565b9450945050604061140289828a01610fa0565b925050606061141389828a01610f6d565b9150509295509295509295565b7f4e487b71000000000000000000000000000000000000000000000000000000005f52602260045260245ffd5b5f600282049050600182168061146457607f821691505b60208210810361147757611476611420565b5b50919050565b7f4e487b71000000000000000000000000000000000000000000000000000000005f52603260045260245ffd5b7f4f6e6c792070617965722063616e2063616c6c207468697300000000000000005f82015250565b5f6114de601883610ffc565b91506114e9826114aa565b602082019050919050565b5f6020820190508181035f83015261150b816114d2565b9050919050565b7f457870656e736520616c726561647920736574746c65640000000000000000005f82015250565b5f611546601783610ffc565b915061155182611512565b602082019050919050565b5f6020820190508181035f8301526115738161153a565b9050919050565b7f4e6f742065766572796f6e6520686173207061696420746865697220736861725f8201527f6500000000000000000000000000000000000000000000000000000000000000602082015250565b5f6115d4602183610ffc565b91506115df8261157a565b604082019050919050565b5f6020820190508181035f830152611601816115c8565b9050919050565b5f819050815f5260205f209050919050565b5f81546116268161144d565b6116308186610ffc565b9450600182165f811461164a576001811461166057611692565b60ff198316865281151560200286019350611692565b61166985611608565b5f5b8381101561168a5781548189015260018201915060208101905061166b565b808801955050505b50505092915050565b5f6060820190508181035f8301526116b3818661161a565b90506116c26020830185611062565b6116cf604083018461108b565b949350505050565b7f596f7520617265206e6f742061207061727469636970616e74000000000000005f82015250565b5f61170b601983610ffc565b9150611716826116d7565b602082019050919050565b5f6020820190508181035f830152611738816116ff565b9050919050565b7f496e636f727265637420616d6f756e743a2050617920796f75722065786163745f8201527f2073686172650000000000000000000000000000000000000000000000000000602082015250565b5f611799602683610ffc565b91506117a48261173f565b604082019050919050565b5f6020820190508181035f8301526117c68161178d565b9050919050565b5f81905092915050565b50565b5f6117e55f836117cd565b91506117f0826117d7565b5f82019050919050565b5f611804826117da565b9150819050919050565b7f5061796d656e7420746f207061796572206661696c65640000000000000000005f82015250565b5f611842601783610ffc565b915061184d8261180e565b602082019050919050565b5f6020820190508181035f83015261186f81611836565b9050919050565b7f437573746f6d20736861726573206c656e677468206d69736d617463680000005f82015250565b5f6118aa601d83610ffc565b91506118b582611876565b602082019050919050565b5f6020820190508181035f8301526118d78161189e565b9050919050565b7f4e487b71000000000000000000000000000000000000000000000000000000005f52601160045260245ffd5b5f61191582610f81565b915061192083610f81565b9250828201905080821115611938576119376118de565b5b92915050565b7f437573746f6d20736861726573206d7573742073756d20746f20746f74616c205f8201527f616d6f756e740000000000000000000000000000000000000000000000000000602082015250565b5f611998602683610ffc565b91506119a38261193e565b604082019050919050565b5f6020820190508181035f8301526119c58161198c565b9050919050565b7f4e487b71000000000000000000000000000000000000000000000000000000005f52601260045260245ffd5b5f611a0382610f81565b9150611a0e83610f81565b925082611a1e57611a1d6119cc565b5b828204905092915050565b7f4e487b71000000000000000000000000000000000000000000000000000000005f52604160045260245ffd5b5f6020601f8301049050919050565b5f82821b905092915050565b5f60088302611aa07fffffffffffffffffffffffffffffffffffffffffffffffffffffffffffffffff82611a65565b611aaa8683611a65565b95508019841693508086168417925050509392505050565b5f819050919050565b5f611ae5611ae0611adb84610f81565b611ac2565b610f81565b9050919050565b5f819050919050565b611afe83611acb565b611b12611b0a82611aec565b848454611a71565b825550505050565b5f5f905090565b611b29611b1a565b611b34818484611af5565b505050565b5b81811015611b5757611b4c5f82611b21565b600181019050611b3a565b5050565b601f821115611b9c57611b6d81611608565b611b7684611a56565b81016020851015611b85578190505b611b99611b9185611a56565b830182611b39565b50505b505050565b5f82821c905092915050565b5f611bbc5f1984600802611ba1565b1980831691505092915050565b5f611bd48383611bad565b9150826002028217905092915050565b611bed82610ff2565b67ffffffffffffffff811115611c0657611c05611a29565b5b611c10825461144d565b611c1b828285611b5b565b5f60209050601f831160018114611c4c575f8415611c3a578287015190505b611c448582611bc9565b865550611cab565b601f198416611c5a86611608565b5f5b82811015611c8157848901518255600182019150602085019450602081019050611c5c565b86831015611c9e5784890151611c9a601f891682611bad565b8355505b6001600288020188555050505b505050505050565b5f60208284031215611cc857611cc7610f1f565b5b5f611cd584828501610f6d565b91505092915050565b828183375f83830152505050565b5f611cf78385610ffc565b9350611d04838584611cde565b611d0d8361101a565b840190509392505050565b5f6060820190508181035f830152611d31818688611cec565b9050611d406020830185611062565b611d4d6040830184611071565b9594505050505056fea26469706673582212207aecf286075d58517ccfe12d4f0910afaf8e85a64a201bf64d66a05c463f15f564736f6c634300081e0033","linkReferences":{}},"methodIdentifiers":{"createExpenseWithCustomSplit(string,address[],uint256,address,uint256[])":"e14e6644","createExpenseWithEqualSplit(string,address[],uint256,address)":"fe5a8db4","expenses(uint256)":"af4afe0a","expensesByPayer(address,uint256)":"52621408","hasEveryonePaid(uint256)":"7ac0b382","payShare(uint256)":"c97320a7","settleExpense(uint256)":"c0a7540b","shareOf(uint256,address)":"54842747"},"id":21}